S016000054656C656D657472795F323031382E7372656329
S113000049C0000064C0000062C0000060C000007D
S11300105EC000005CC000005AC0000058C0000070
S113002056C0000054C0000052C0000050C0000080
S11300304EC000004CC000004AC0000048C0000090
S113004046C0000044C0000043C0000040C000009F
S11300503EC000003CC000003AC0000038C00000B0
S113006036C0000034C0000032C0000030C00000C0
S11300702EC000002CC000002AC0000028C00000D0
S113008026C0000024C0000022C0000020C00000E0
S11300901EC0000011241FBECFEFD0E1DEBFCDBFD4
S11300A011E0A0E0B1E0E2E4FEE000E00BBF02C03A
S11300B007900D92A832B107D9F722E0A8E2B1E087
S11300C001C01D92AE3AB207E1F7F5D1B8C698CF98
S11300D01F920F920FB60F9211240BB60F922F930B
S11300E03F934F935F936F938F939F93AF93BF937C
S11300F0EF93FF93CF93DF931F92CDB7DEB7809139
S1130100E00080FF47C09091DE0090FF43C0109252
S1130110ED00EEEEF0E08081898380818F7B808327
S113012080912D0190912C01981789F18F702BE00B
S1130130829FC0011124FC01E252FE4F20812093D2
S1130140F00020812093F20021812093F300238189
S1130150AAEFB0E02C9324812C9325812C93268143
S11301602C9327812C9320852C9321852C932285F5
S11301702C93FC01E052FE4F80818F708064809349
S1130180EF0080912D018F5F80932D017DC010922F
S11301902B017AC081FF78C08091DE0081FF74C09A
S11301A080E18093ED0080912901282F30E0909127
S11301B02A01291B31092F773327203131050CF00F
S11301C058C0E82FEF709091EF002E2F30E04BE0F5
S11301D0E49FF0011124E25DFE4F9F704281407F55
S11301E0942B92834091F2009091F000407E97709E
S11301F0942B90839091F3009183AAEFB0E09C91AB
S113020093839C9194839C9195839C9196839C91D8
S113021097839C9190879C9191879C9192878F5F03
S11302208093290140814295469547705181652FFD
S1130230660F660F660F862F842B952F92959695E1
S11302409770892BB1F48BE0829FF001839FF00DAE
S11302501124E25DFE4F8381833059F498E088E1F4
S11302600FB6F894A895809360000FBE9093600039
S1130270FFCFEEEEF0E080818983898180818F7DDC
S1130280808380E88093EF000F90DF91CF91FF91FE
S1130290EF91BF91AF919F918F916F915F914F912A
S11302A03F912F910F900BBE0F900FBE0F901F9098
S11302B01895CF93DF93E8EDF0E021E020831092CE
S11302C0E2002CE02093E30027E32093E400109263
S11302D0E7001092E6001092E9001092E8001092F4
S11302E0EC001092E500CDEED0E01882AEEEB0E066
S11302F01C9220E128831C921092F400282F22954E
S1130300220F207E2093F6009695879596958795E3
S1130310969587958093F7001092F000862F82952A
S1130320880F807E8093F200769567957695679521
S1130330769567956093F30080E88093EF0083E0FF
S11303408093DC008093DE0080EB8093DB0082E00E
S1130350808310922801DF91CF910895CF93DF938A
S1130360EC0140912A0120912901241789F1A42F3D
S1130370AF708BE0A89FB0011124FB01E25DFE4F3A
S113038020812295269527703181532F550F550FC3
S1130390550F252B32953695377028833983FB0109
S11303A0E05DFE4F20812F702A83222399F0DB0128
S11303B0AF5CBE4FFE01339630E02D5F3F4FCE0160
S11303C0820F931F2D912193E817F907D9F702C0E3
S11303D080E004C04F5F40932A0181E0DF91CF9118
S11303E00895AF92BF92CF92DF92EF92FF920F9354
S11303F01F93CF93DF93CDB7DEB72B970FB6F89447
S1130400DEBF0FBECDBFE982FA820B831C832D832E
S11304103E834F83588769877A878B87E02EF12C38
S11304201F920F938A818F9389818F9386E091E045
S11304309F938F93D2D00F900F900F900F900F90A7
S11304400F901E141F041CF57E0124E0E20EF11C23
S1130450CE01800F911DFC0134965F0110E00F2E38
S1130460F0E1CF2EF1E0DF2EF02DF70181917F0135
S11304701F928F93DF92CF92B0D0812F5CD01F5FF9
S11304800F900F900F900F90EA14FB0471F785E121
S113049091E0B6D02B960FB6F894DEBF0FBECDBF59
S11304A0DF91CF911F910F91FF90EF90DF90CF904C
S11304B0BF90AF90089584B1806E84B985B1806C8B
S11304C085B92D982BD060E070E080E090E0F1DEFB
S11304D060E070E08BE992E036D08EE892E03EDF97
S11304E08823C1F0E0908E02F0908F020091900278
S11304F010919102209192023091930240919402C2
S113050050919502609196027091970280919802A1
S113051068DFE3CF87E191E073D0DFCF1092CD00A5
S11305201092CC0086E08093CA00E9ECF0E0808170
S1130530886080830895E8ECF0E0908195FFFDCF1A
S11305408093CE0008950F931F93CF93DF9300976A
S113055031F46115710519F480E090E039C08B0124
S1130560EC016EE070E081E090E077D2FC01892B31
S113057099F380E883830115110571F013870287CD
S113058081E883838091A4029091A502892B21F4B0
S1130590F093A502E093A4022097C9F0D187C08705
S11305A08381826083838091A6029091A702892B24
S11305B071F4F093A702E093A6028091A8029091AF
S11305C0A902892B21F4F093A902E093A802CF0198
S11305D0DF91CF911F910F910895CF93DF93CDB702
S11305E0DEB7AE014B5F5F4FFA0161917191AF01CC
S11305F08091A6029091A70233D0DF91CF91089504
S11306000F931F93CF93DF93E091A602F091A7027B
S1130610238121FF1BC08C01D0E0C0E0F80181914F
S11306208F016091A6027091A702DB011896ED91EB
S1130630FC911997882331F00995892B79F3DFEF21
S1130640CFEFECCF8AE00995892B19F08FEF9FEF5C
S113065002C08D2F9C2FDF91CF911F910F91089590
S11306602F923F924F925F926F927F928F929F92BE
S1130670AF92BF92CF92DF92EF92FF920F931F93AC
S1130680CF93DF93CDB7DEB72B970FB6F894DEBFC9
S11306900FBECDBF6C017B018A01FC01178216825B
S11306A0838181FFBFC1CE0101963C01F601938194
S11306B0F70193FD859193FF81917F01882309F4CC
S11306C0ADC1853239F493FD859193FF81917F010A
S11306D0853221F4B60190E018D3E8CF912C212C77
S11306E0312CFFE1F315D8F08B3279F038F48032F5
S11306F079F08332A1F4232D20611DC08D3261F085
S1130700803369F4232D216016C0832D8260382E36
S1130710E32DE4603E2E2AC0F32DF8601DC037FCA3
S11307202DC020ED280F2A3040F08E32B9F436FC6B
S113073075C1232D2064322E19C036FE06C08AE00E
S1130740989E200D1124922E11C0EAE02E9E200DB9
S11307501124222EF32DF0623F2E08C08C3621F492
S1130760832D8068382E02C0883641F4F70193FD4A
S1130770859193FF81917F018111B3CF982F9F7D44
S11307809554933028F40C5F1F4F9FE399830DC059
S1130790833631F0833771F0833509F055C020C0BA
S11307A0F801808189830E5F1F4F88248394912CE4
S11307B0530112C02801F2E04F0E511CF801A08031
S11307C0B18036FE03C0692D70E002C06FEF7FEF89
S11307D0C50190D24C018201F32DFF773F2E15C045
S11307E0280122E0420E511CF801A080B18036FE9F
S11307F003C0692D70E002C06FEF7FEFC50168D2BE
S11308004C01F32DF0683F2E820133FC19C0822D78
S113081090E088169906A0F4B60180E290E075D2C3
S11308202A94F5CFF50137FC859137FE81915F015C
S1130830B60190E06AD221102A9421E0821A91082C
S11308408114910479F7E1C0843611F0893639F5C1
S1130850F80137FE07C060817181828193810C5F4A
S11308601F4F08C060817181072E000C880B990B03
S11308700E5F1F4FF32DFF763F2E97FF09C0909513
S11308808095709561957F4F8F4F9F4FF0683F2EF5
S11308902AE030E0A30175D2882E861844C085373B
S11308A031F4232D2F7EB22E2AE030E025C0932D83
S11308B0997FB92E8F36C1F018F4883579F0AEC01F
S11308C0803719F0883721F0A9C0E92FE061BE2EE6
S11308D0B4FE0DC0FB2DF460BF2E09C034FE0AC067
S11308E0292F2660B22E06C028E030E005C020E1A2
S11308F030E002C020E132E0F801B7FE07C06081B9
S11309007181828193810C5F1F4F06C06081718168
S113091080E090E00E5F1F4FA30133D2882E86182B
S1130920FB2DFF773F2E36FE0DC0232D2E7FA22EEA
S1130930891458F434FE0BC032FC09C0832D8E7E1A
S1130940A82E05C0B82CA32C03C0B82C01C0B92C08
S1130950A4FE0FC0FE01E80DF11D8081803321F457
S11309609A2D997EA92E09C0A2FE06C0B394B39411
S113097004C08A2D867809F0B394A3FC10C0A0FEAD
S113098006C0B21480F4280C922C9B180DC0B2142B
S113099058F4B60180E290E0B8D1B394F8CFB21421
S11309A018F42B1802C0982C212CA4FE0FC0B601F9
S11309B080E390E0AAD1A2FE16C0A1FC03C088E7A0
S11309C090E002C088E590E0B6010CC08A2D8678DC
S11309D051F0A1FE02C08BE201C080E2A7FC8DE2CF
S11309E0B60190E092D1891430F4B60180E390E02E
S11309F08CD19A94F8CF8A94F301E80DF11D80818B
S1130A00B60190E082D18110F6CF222009F44ECEB7
S1130A10B60180E290E079D12A94F7CFF60186817D
S1130A20978102C08FEF9FEF2B960FB6F894DEBF2D
S1130A300FBECDBFDF91CF911F910F91FF90EF902B
S1130A40DF90CF90BF90AF909F908F907F906F90EA
S1130A505F904F903F902F9008950F931F93CF93E3
S1130A60DF93869F8001879F100D969F100D1124A0
S1130A70C8010DD0EC01009721F0A80160E070E0FE
S1130A8032D1CE01DF91CF911F910F9108950F9331
S1130A901F93CF93DF938230910510F482E090E0AE
S1130AA0E091AC02F091AD0220E030E0A0E0B0E0D3
S1130AB0309719F1408151810281138148175907F8
S1130AC0C8F08417950769F4109731F012960C93C7
S1130AD0129713961C9327C00093AC021093AD0297
S1130AE022C02115310519F04217530718F49A0151
S1130AF0BD01EF01DF01F801DBCF21153105F9F06C
S1130B00281B390B2430310580F48A819B816115BF
S1130B10710521F0FB019383828304C09093AD029D
S1130B208093AC02FE01329644C0FE01E20FF31F33
S1130B308193919322503109398328833AC02091BB
S1130B40AA023091AB02232B41F42091020130918F
S1130B5003013093AB022093AA022091000130914B
S1130B6001012115310541F42DB73EB7409104012F
S1130B7050910501241B350BE091AA02F091AB02C0
S1130B80E217F307A0F42E1B3F0B2817390778F060
S1130B90AC014E5F5F4F2417350748F04E0F5F1FBF
S1130BA05093AB024093AA028193919302C0E0E078
S1130BB0F0E0CF01DF91CF911F910F910895CF9372
S1130BC0DF93009709F481C0FC01329713821282EB
S1130BD0A091AC02B091AD02109781F420813181D3
S1130BE0820F931F2091AA023091AB022817390774
S1130BF051F5F093AB02E093AA0267C0ED0120E047
S1130C0030E0CE17DF0740F44A815B819E01411535
S1130C105105F1F0EA01F5CFD383C28340815181BC
S1130C20840F951FC817D90759F488819981840FB7
S1130C30951F0296918380838A819B81938382830B
S1130C402115310529F4F093AD02E093AC023DC0C7
S1130C50E901FB83EA8349915991C40FD51FEC172D
S1130C60FD0761F480819181840F951F0296E9014B
S1130C7099838883828193819B838A83E0E0F0E077
S1130C8012968D919C911397009719F0FD01DC0148
S1130C90F7CF8D919C9111979D012E5F3F4F820F4D
S1130CA0931F2091AA023091AB022817390769F4E7
S1130CB0309729F41092AD021092AC0202C0138254
S1130CC01282B093AB02A093AA02DF91CF91089550
S1130CD0FC010590615070400110D8F78095909503
S1130CE08E0F9F1F0895DC0101C06D934150504049
S1130CF0E0F70895FC016150704001900110D8F7AD
S1130D00809590958E0F9F1F08950F931F93CF93F7
S1130D10DF93FB01238121FD03C08FEF9FEF2CC0E4
S1130D2022FF16C04681578124813581421753071B
S1130D3044F4A081B1819D012F5F3F4F3183208313
S1130D408C93268137812F5F3F4F3783268314C0CE
S1130D508B01EC01FB010084F185E02D0995892BC1
S1130D60E1F6D80116968D919C91179701961796E6
S1130D709C938E931697CE01DF91CF911F910F9183
S1130D800895FA01AA27283051F1203181F1E8941D
S1130D906F936E7F6E5F7F4F8F4F9F4FAF4FB1E06A
S1130DA03ED0B4E03CD0670F781F891F9A1FA11D65
S1130DB0680F791F8A1F911DA11D6A0F711D811D66
S1130DC0911DA11D20D009F468943F912AE0269F2B
S1130DD011243019305D3193DEF6CF010895462F8A
S1130DE04770405D4193B3E00FD0C9F7F6CF462F6B
S1130DF04F70405D4A3318F0495D31FD40524193D4
S1130E0002D0A9F7EACFB4E0A69597958795779590
S1130E106795BA95C9F700976105710508959B0117
S1130E20AC010A2E06945795479537952795BA95A0
S1130E30C9F7620F731F841F951FA01D0895F894AE
S1050E40FFCFDE
S1130E420000AE0220005B253033583A25643A0094
S1130E5225303258005D004E6F206E657720636145
S10B0E626E2D6461746120002F
S9030000FC
